:020000040800F2
:100000000004002021020008210300082103000849
:100010002103000821030008210300082103000830
:100020002103000821030008210300084103000800
:10003000210300082103000821030008110400081F
:100040002103000821030008210300082103000800
:1000500021030008210300082103000821030008F0
:1000600021030008210300082103000821030008E0
:1000700021030008210300082103000821030008D0
:1000800021030008210300082103000821030008C0
:1000900021030008210300082103000821030008B0
:1000A00021030008210300082103000821030008A0
:1000B0002103000821030008210300082103000890
:1000C0002103000821030008210300082103000880
:1000D00021030008E15D0008210300082103000856
:1000E0002103000821030008210300082103000860
:1000F0002103000821030008210300082103000850
:10010000210300082103000821030008210300083F
:10011000210300082103000821030008210300082F
:10012000210300082103000821030008210300081F
:10013000210300082103000821030008210300080F
:1001400021030008210300082103000821030008FF
:1001500021030008210300082103000821030008EF
:1001600021030008210300082103000821030008DF
:1001700021030008210300082103000821030008CF
:0801800021030008210300081F
:1001900000B583B005F0ECFB00F0AAF9154800218A
:1001A00005F05EFC4FF090404FF4007140F2823257
:1001B00005F0B6FD4FF090404FF4806140F282327E
:1001C00005F0AEFD002300930B480C4B4FF4A871D3
:1001D000402200F0C5FB4FF0904403E04FF4FA706A
:1001E00000F03EFC2369DB07F8D5024801F0C8FFA8
:1001F000F4E700BFE011002060120020A15F0008BA
:10020000704700BFAFF30080AFF30080AFF3008012
:10021000FEE700BFAFF30080AFF30080AFF30080D4
:1002200072B6314880F30988022383F31488BFF340
:100230006F8F2E4B2E4A93420BD2D9430A4422F0A1
:10024000030204321A444FF0553143F8041B934221
:10025000FBD1284B83420CD2274A191D521A22F097
:10026000030204321A444FF0553143F8041B934201
:10027000FBD105F085FE214A214B9A420CD2D04396
:10028000184420F003001F4B0430184453F8041B9B
:1002900042F8041B8342F9D11B4B1C4A93420AD2F9
:1002A000D9430A4422F0030204321A44002143F8DD
:1002B000041B9342FBD1164D164CFFF7A1FFAC4235
:1002C00004D254F8043B9847AC42FAD3124D134C75
:1002D000FFF75EFFAC4204D254F8043B9847AC42AF
:1002E000FAD3FFF795FF00BF0008002000000020B0
:1002F0000004002000040020030800200008002063
:10030000B8080020A86D0008B8080020B01300202D
:100310008801000888010008880100088801000899
:10032000FEE700BFAFF30080AFF30080AFF30080C3
:1003300000F0A6FA00DF00BFAFF30080AFF300804B
:10034000EFF30983203383F30988002383F31188B3
:10035000704700BFAFF30080AFF30080AFF30080C1
:1003600008B5094B094A002199600720DA6010217D
:1003700000F096F80A20202100F092F80B2080214E
:10038000BDE8084000F08CB800ED00E00003FA057D
:10039000202383F31188174B5B6813F4006319D093
:1003A000EFF309834FF0807243F8042CA3F120028D
:1003B00082F3098810498A69D07F70B10868916812
:1003C00082688A4294BF002201227AB10B4A43F824
:1003D000082C704783F31188704708689168826819
:1003E0008A4234BF00220122002AEFD1044A43F896
:1003F000082C704700ED00E0F009002031030008F0
:1004000034030008AFF30080AFF30080AFF3008047
:1004100008B5202383F3118800F09AF8002383F3B2
:100420001188BDE80840FFF7B3BF00BFAFF30080FD
:100430002DE9F04FC1F80CD0D0F80CD0BDE8F08F0A
:10044000002383F311882846A04700F069FB70471A
:1004500020F0030202F1604202F5614270B44309E8
:1004600000F00304D2F80053E400FF269B00A640EE
:1004700003F16043A14025EA060503F56143012429
:1004800000F01F0004FA00F02943C2F8001370BC0A
:10049000C3F8800118607047AFF30080AFF30080AD
:1004A00020F0030303F1604303F56D4300F0030004
:1004B00010B4C0009A69FF24844022EA04028140FB
:1004C000114399615DF8044B704700BFAFF30080A2
:1004D000024B034A9B699A61FEE700BFF0090020C6
:1004E00030600008AFF30080AFF30080AFF300800E
:1004F00000B583B0FFF734FF00F0DAF800F058F8E9
:1005000001F076FB01F0BCFB40210B4800F0C8F97C
:100510000A49012288610277002383F3118862B6B9
:100520008969074888610093E021064B064800F07E
:1005300017FA03B05DF804FBB8080020F0090020AA
:1005400040600008D104000800090020AFF30080DB
:1005500070B5134B9B69DA7F0AB1013ADA771A6AF0
:10056000104C01321A62E36822680133A242E36050
:1005700014D09668013E966086B91168D5682160EE
:10058000D66000234C6083F311881069A8472023AC
:1005900083F3118822689368002BEED070BD00BFF2
:1005A000F0090020E0090020AFF30080AFF30080E5
:1005B000044B4FF0FF3100225B601B609960DA60F2
:1005C000704700BFE0090020AFF30080AFF3008068
:1005D00070B40C4E3468A5680361A942C26004D9A6
:1005E0002468491BA5688D42FAD363684360B4420E
:1005F000046060601860816002D0A368591AA1602D
:1006000070BC7047E0090020AFF30080AFF30080BA
:10061000074A0368934203D0996882680A449A6043
:1006200042681360016800234A60C360704700BFDE
:10063000E0090020AFF30080AFF30080AFF300804B
:1006400010B4202383F31188037F0D2B11D8DFE82A
:1006500003F026101007100B101010101010100BC4
:10066000426A93680133936090E80C001A60026854
:1006700053604FF0FF34002381680C4A44620377D3
:10068000126893688B42FBD251684160026000237C
:100690005060086083F311885DF8044B70470023B5
:1006A00083F311885DF8044B704700BFF009002008
:1006B000034B00225B601B605B611B619A607047AB
:1006C000F0090020AFF30080AFF30080AFF30080AB
:1006D00000228168084B10B4044602771B689A68B0
:1006E0008A42FBD25A686260236020465C601460D4
:1006F0005DF8044B704700BFF0090020AFF30080A5
:10070000084B30B41A6899691468087701251420D9
:10071000C877636015771C60104630BC9A61FFF79C
:1007200087BE00BFF0090020AFF30080AFF3008068
:1007300030B54B1C87B012D00C4C0D4AA36905464E
:1007400001A8FFF745FF2846FFF7DAFF049B13B126
:1007500001A8FFF75DFFA369586A07B030BD034CDD
:10076000FFF7CEFFA369586A07B030BDF00900203B
:1007700041060008AFF30080AFF30080AFF30080C4
:10078000144BF0B49E6984680546B068696284427F
:100790004FF000020BD82A771B689A689442FBD965
:1007A0005A686A602B605D601560F0BC70473277F4
:1007B0001A46126891688842FBD954687460012710
:1007C0003260566026602F77314628469D61F0BC26
:1007D000FFF72EBEF0090020AFF30080AFF30080DA
:1007E0000E4A1068F0B40368946913600127142658
:1007F0000025A1685A60077703469061E677257760
:1008000000E01B689A688A42FBD25A6862602360E3
:1008100021465C601460F0BCFFF70ABEF0090020BE
:100820000D4A106870B403689469136001260025AE
:10083000A1685A60067703469061257700E01B683F
:100840009A688A42FBD85A686260236021465C60DD
:10085000146070BCFFF7ECBDF0090020AFF300801E
:10086000044B1A689B6992689B689A4200D870474B
:10087000FFF7D6BFF0090020AFF30080AFF3008090
:10088000034B9B69DB7F0BB1FFF7CABFFFF7A8BF24
:10089000F0090020AFF30080AFF30080AFF30080D9
:1008A0002DE9F041114C016466694661002200F1B6
:1008B0002C054FF002084FF0140C4FF0010E00F120
:1008C00028078160046180F81C80606180F81FC087
:1008D00080F81EE04277C263826302628261306107
:1008E00087620563C562BDE8F08100BFF0090020A2
:1008F0002DE9F04F184DDFF86490D5F814E0099F0A
:1009000024394618C6604FF0020B43504FF0140ACA
:10091000002300F12C014FF0010800F1280C776052
:10092000C6F8209082600561C0F814E0026480F887
:100930001CB080F81FA080F81E8043776861C363F5
:10094000836303628361CEF81000C0F828C001639E
:10095000C162BDE8F08F00BFF0090020410400082B
:100960002DE9F84F1D4696460446202383F311884F
:100970001B4BDFF870B05A6924394618C66000F185
:100980002C07455000F1280C00250A9971604FF0A2
:10099000020A4FF014094FF00108C6F820B02946AA
:1009A0000361C0F808E04261C0F840E0586180F897
:1009B0001CA080F81F9080F81E804577C563856372
:1009C000056285611061C0F828C00763C762FFF740
:1009D000D7FE2B4683F311882046BDE8F88F00BF71
:1009E000F009002041040008AFF30080AFF300805D
:1009F00010B5202383F31188084B9B691C6C996800
:100A00008C4201D0814200D298601864FFF728FF21
:100A1000002383F31188204610BD00BFF009002099
:100A200010B52023044683F311880021FFF7A8FEA8
:100A3000002383F31188204610BD00BFAFF3008070
:100A4000202383F31188437F43F00403437700237B
:100A500083F31188704700BFAFF30080AFF30080CD
:100A600008B50146202383F311880620FFF760FEB6
:100A7000002383F3118808BDAFF30080AFF300803B
:100A800008B5202383F31188054BD968411A02D099
:100A90000620FFF74DFE002383F3118808BD00BF39
:100AA000E0090020AFF30080AFF30080AFF30080D7
:100AB00008B5202383F31188064B1A689B69926856
:100AC0009B689A4201D3FFF78BFE002383F31188C2
:100AD00008BD00BFF0090020AFF30080AFF3008035
:100AE00038B50E4B9C692546606255F8280FA84220
:100AF00006D00368A362FFF7EBFDA06AA842F8D115
:100B0000637F9B0704D1636922691A61226953617B
:100B10000E20BDE83840FFF7F3BD00BFF00900200C
:100B2000202383F31188FFF7DBBF00BFAFF3008002
:100B300038B50446202383F31188037F0E2B07D09A
:100B4000084B826A9B6907201A60A362FFF7D8FDF1
:100B5000656A002383F31188204600F019F82846BF
:100B600038BD00BFF0090020AFF30080AFF3008074
:100B7000202383F31188837F01338377002383F35A
:100B800011887047AFF30080AFF30080AFF30080AF
:100B90000146202383F31188827F013AD2B2827703
:100BA000002383F3118812B9037F0E2B00D0704706
:100BB000437F03F00303012B02D0022B07D07047C1
:100BC000436902691A610269536101F0B9B8436966
:100BD00002691A610269406C536101F049B900BFB2
:100BE000F0B583B016461D460F4601F069F898B17E
:100BF000202383F31188089B0093394632462B4605
:100C0000FFF776FE0123437700210446FFF7B8FD86
:100C1000002383F31188204603B0F0BDAFF30080BA
:100C20002DE9F04182B00F4616469846054601F080
:100C300007F9A0B1202383F311886968CDF80080FB
:100C40003A463346FFF754FE0223437745640021BA
:100C50000446FFF795FD002383F31188204602B078
:100C6000BDE8F081AFF30080AFF30080AFF3008008
:100C7000202383F31188044B1869837F0133837722
:100C8000002383F311887047F0090020AFF3008040
:100C900010B5202383F31188074B04699C421DBFC4
:100CA000A37F0133A3770024002383F31188FFF788
:100CB0006FFF204610BD00BFF0090020AFF3008099
:100CC0004060006081607047AFF30080AFF3008048
:100CD00070B5856881600135002D0CDC04466FF02D
:100CE00001066068436863601C60FFF7F1FC013532
:100CF000012D4662F5D170BDAFF30080AFF30080E7
:100D000008B5202383F31188FFF7E2FFFFF7A8FD62
:100D1000002383F3118808BDAFF30080AFF3008098
:100D2000202383F311888368013B002B836004DB5D
:100D30000020002383F31188704710B5084CA26986
:100D4000506241685160034610605A6003200A6097
:100D5000FFF7D6FCA369586A002383F3118810BDFE
:100D6000F0090020AFF30080AFF30080AFF3008004
:100D700003468068421E002A9A6001DB002070470B
:100D800010B461B1094A926953625C68032082E839
:100D900018005A6022605DF8044BFFF7C9BC9860E8
:100DA0005DF8044B4FF0FF30704700BFF0090020A2
:100DB00008B5202383F31188FFF7DAFF002383F3BC
:100DC000118808BDAFF30080AFF30080AFF300805F
:100DD00008B5202383F3118883680133002B8360D7
:100DE00003DD002383F3118808BD03460068026811
:100DF0001A6000215360FFF7C3FC002383F31188BE
:100E000008BD00BFAFF30080AFF30080AFF30080F8
:100E100083680133002B836000DD704703681A6824
:100E200002600021506018465962FFF751BC00BFB4
:100E300070B50C1E12DD0546002601E0013C0DD008
:100E4000AB680133002BAB60F8DC286803682B60CB
:100E50005D60FFF73DFC013C4662F1D170BD00BF13
:100E600010B5024682B0202383F3118883680133D2
:100E7000002B83601DDD8B68013B002B8B6007DB43
:100E8000FFF7EEFC0020002383F3118802B010BDB1
:100E90000D4A4B689469032084E80A004C601C608A
:100EA0006162FFF72DFC606A002383F3118802B0B2
:100EB00010BD00680191036813605A60FFF708FCD9
:100EC000002343620199D6E7F0090020AFF30080C8
:100ED0000023406000608360704700BFAFF3008074
:100EE000304B826870B59C69002A55D0A168936820
:100EF0009942054606D9137F9160042B33D0052B08
:100F00001DD09BB12B4603E09968A268914202D3A1
:100F10001B689D42F8D15A68626023605C6014606F
:100F200065620420BDE87040FFF7EABB92E80A0062
:100F30001960116810464B60FFF7CAFBE2E792E8C0
:100F400009001860566A10684360334602E09868EA
:100F5000884202D31B689E42F9D1596851601360E0
:100F60005A600A60CEE792E809001860566A106875
:100F70004360334602E09868884202D31B689E4271
:100F8000F9D15968516013605A600A60B268A1686B
:100F900093688B42AFD3B5E7E36BC3608460E063D3
:100FA00070BD00BFF0090020AFF30080AFF30080F8
:100FB00008B5202383F31188FFF792FF002383F302
:100FC000118808BDAFF30080AFF30080AFF300805D
:100FD0000246202383F31188836800201BB100237D
:100FE00083F311887047054B9B699360D96BD1607F
:100FF0000120DA63002383F311887047F009002091
:10100000174A38B59069202383F31188C46B25688B
:10101000E368C363A5421CD0016C4BB11A689A42C5
:1010200003D09268914238BF1146DB68002BF5D19E
:101030002B68EA6B8160236028465C600021A56014
:10104000E260EC63FFF79CFB002383F311882046EA
:1010500038BD0023A360002383F31188204638BDE8
:10106000F0090020AFF30080AFF30080AFF3008001
:1010700038B5124B9869C46B2568E368C363A54211
:1010800018D0016C4BB11A689A4203D09268914211
:1010900038BF1146DB68002BF5D12B68EA6B816005
:1010A000236028465C60A560E260EC63FFF710FBFC
:1010B000204638BD0023A360204638BDF00900203B
:1010C000134A70B52023946983F31188E36BD3B17D
:1010D00000260AE01168D56B19604B609A60DD60EC
:1010E000D363FFF7F5FAE36B4BB11A68D968E16394
:1010F0009A421046EED19E60E36B002BF5D1236C33
:10110000A360FFF7ADFB002383F3118870BD00BF20
:10111000F0090020AFF30080AFF30080AFF3008050
:1011200040600060704700BFAFF30080AFF3008005
:1011300008B5202383F311880268824207D0116822
:10114000016003464B6010460021FFF719FB0023A6
:1011500083F3118808BD00BFAFF30080AFF30080B8
:10116000026882420AD0116808B5034601604B60EC
:101170001046FFF7ADFA0023436208BD704700BF79
:1011800038B504460068A0420AD06FF00105036834
:1011900023605C60FFF79CFA45622068A042F6D1AC
:1011A00038BD00BFAFF30080AFF30080AFF3008025
:1011B00008B5202383F31188FFF7E2FFFFF750FB08
:1011C000002383F3118808BDAFF30080AFF30080E4
:1011D0000F4B70B59C690546FFF74AFF65620646EE
:1011E0002B4603E09968A268914202D31B689D4296
:1011F000F8D15A686260236005205C601460FFF7D4
:101200007FFA646A3046FFF76BFE204670BD00BF70
:10121000F0090020AFF30080AFF30080AFF300804F
:1012200008B5202383F31188FFF7D2FF002383F34F
:10123000118808BDAFF30080AFF30080AFF30080EA
:10124000F8B505460F46FFF713FF0F4B9C6906469E
:101250002B46656203E09868A268904202D31B683F
:101260009D42F8D15A686260236039465C6005206F
:101270001460FFF75DFA431C044602D03046FFF7C6
:101280002FFE2046F8BD00BFF0090020AFF300801C
:1012900008B5202383F31188FFF7D2FF002383F3DF
:1012A000118808BDAFF30080AFF30080AFF300807A
:1012B00030B4202383F31188064C0368A5690B60C2
:1012C0000024016023464D608A60CC6083F311885E
:1012D00030BC7047F0090020AFF30080AFF300800E
:1012E000202383F31188024602E0994207D01A4670
:1012F00013688342F9D1002383F3118870470B6888
:101300001360002383F31188704700BFAFF30080A0
:10131000202383F31188054B9B699A6B22EA000115
:101320009963002383F3118810407047F00900206F
:10133000202383F31188044B9A69936B18439063BD
:10134000002383F311887047F0090020AFF3008079
:1013500008B5836B027F1943082A81630BD0092AE1
:1013600000D008BD436A19408B42FAD1FFF7B0F9AB
:101370000023436208BD436A1942F7D108BD00BF8C
:1013800070B50468A04205460E4608D0201D0BC863
:101390003343E360FFF7DCFF2468A542F6D170BD5C
:1013A00008B5202383F31188FFF7D2FFFFF758FA1F
:1013B000002383F3118808BDAFF30080AFF30080F2
:1013C00008B5202383F31188FFF7DAFFFFF748FA07
:1013D000002383F3118808BDAFF30080AFF30080D2
:1013E000F8B50D46A9B107460024012606FA04F314
:1013F0002B4204D1013406FA04F32B42FAD02046E2
:1014000025EA030557F8243098470134002DEDD123
:10141000F8BDF8BDAFF30080AFF30080AFF30080FC
:1014200038B50D4B9D69202383F31188AB6B10EA0F
:10143000030207D1044668620820FFF761F9AB6B2D
:1014400004EA03025042104023EA0003AB63002386
:1014500083F3118838BD00BFF0090020AFF300808E
:1014600038B50C4B9D69202383F31188AB6B10EAD0
:10147000030406D1044668620820FFF741F9AB6B0C
:101480001C4023EA0403AB63002383F31188204646
:1014900038BD00BFF0090020AFF30080AFF300803B
:1014A00038B50C4B04469D69202383F31188AB6B40
:1014B00000EA0302824204D068620920FFF720F9A3
:1014C000AB6B23EA0403AB63002383F3118820464C
:1014D00038BD00BFF0090020AFF30080AFF30080FB
:1014E000134B70B59E69202383F31188B26B10EA09
:1014F00002040FD121B90B4683F31188084670BD51
:10150000706205460820FFF713F900280BDBB26B69
:1015100005EA02046042204022EA0002B26300238E
:1015200083F3118870BD234683F31188204670BD74
:10153000F0090020AFF30080AFF30080AFF300802C
:10154000134B70B59E69202383F31188B26B10EAA8
:1015500002040FD121B90B4683F31188084670BDF0
:10156000706205460820FFF7E3F800280ADBB26B3B
:1015700005EA020422EA0402B263002383F311881D
:10158000204670BD234683F31188204670BD00BFFE
:10159000F0090020AFF30080AFF30080AFF30080CC
:1015A00038B5124B04469D69202383F31188AB6B39
:1015B0001840A0420CD021B90B4683F3118808468D
:1015C00038BD6C620920FFF7B3F8002808DBAB6B6D
:1015D00023EA0403AB63002383F31188204638BD5C
:1015E000002383F31188184638BD00BFF00900209E
:1015F0000E4B70B59C69202383F3118800F12C05F4
:10160000067F6562036B63600C2E61632560046373
:101610001C6007D00A20FFF773F8606A002383F389
:10162000118870BDFFF754F8F4E700BFF0090020FF
:1016300010B5202383F311880B4CA269134653F88D
:101640002C0F984208D00168D1620B224B60002316
:10165000027783F3118810BD0C20FFF751F8A269BF
:10166000D06A02F12C03EEE7F0090020AFF300800E
:1016700008B5202383F31188FFF782F8002383F352
:10168000118808BDAFF30080AFF30080AFF3008096
:1016900010B50B4601EB820141600446C3608360D4
:1016A000036011461C30FFF70BFB04F11000002112
:1016B000BDE81040FFF704BBAFF30080AFF300803C
:1016C00010B52023044683F3118803684168C36082
:1016D000C91A836089101C30FFF7FAFA04F1100070
:1016E0000021FFF7F5FAFFF7BBF8002383F3118819
:1016F00010BD00BFAFF30080AFF30080AFF30080F8
:1017000070B504460E461C301146FFF731FB054606
:1017100078B9A2686168131D8B42A36028BF236853
:10172000166004F1100028BFA360FFF771FBFFF7FC
:1017300097F8284670BD00BFAFF30080AFF300807C
:1017400008B5202383F31188FFF7DAFF002383F322
:10175000118808BDAFF30080AFF30080AFF30080C5
:1017600038B5436A002B12DD84684568221D013BB1
:10177000AA42436228BF03688260216000F1100022
:1017800028BF40F8083CFFF743FB002038BD4FF06E
:10179000FF3038BDAFF30080AFF30080AFF30080BF
:1017A00070B504460E461C301146FFF7E1FA0546B7
:1017B00060B9E3682268043B9342E36008D31E608B
:1017C00004F11000FFF724FBFFF74AF8284670BD2C
:1017D0006368043BE360F2E7AFF30080AFF300809F
:1017E00008B5202383F31188FFF7DAFF002383F382
:1017F000118808BDAFF30080AFF30080AFF3008025
:10180000426A002A11DDC36810B50468043B013A3E
:10181000A3424262C36002D24368043BC3601960C2
:101820001030FFF7F5FA002010BD4FF0FF30704781
:1018300070B504460E4610301146FFF799FA05467A
:1018400080B9E3686268196804339342E36028BF93
:101850002368316004F11C0028BFE360FFF7D8FA69
:10186000FEF7FEFF284670BDAFF30080AFF30080A7
:1018700008B5202383F31188FFF7DAFF002383F3F1
:10188000118808BDAFF30080AFF30080AFF3008094
:101890008369002B14DD5A1EC36810B5826142684B
:1018A0001C6804339342C36028BF03680C6000F1D6
:1018B0001C0028BF40F8103CFFF7AAFA002010BD1A
:1018C0004FF0FF30704700BFAFF30080AFF30080F0
:1018D00071B1094B9B6910B458624468024683E8B1
:1018E00014000D20536023605DF8044BFEF720BF09
:1018F0004FF0FF30704700BFF0090020AFF30080C9
:1019000030B4029C046200250A4485600261406094
:10191000006041618161C160C36130BC704700BF3C
:1019200038B504460068E36863610022A042A26003
:10193000A3610AD06FF00105036823605C60FEF7C5
:10194000C7FE45622068A042F6D138BDAFF30080E3
:10195000034640699A69904210B59A681BD00132DB
:10196000441C9A605C61017059691A6991420BD2FA
:10197000186898420DD002681A605360FEF7A8FEFE
:1019800000234362184610BD1868DA685A6198420D
:10199000F1D1002010BD002AE1D06FF0030010BD8E
:1019A00070B520230E46044683F31188C3692BB11A
:1019B000984703E0FFF78CFF002815DBA568204659
:1019C0003146002DF6D0A2692169531C8B4205F1E6
:1019D000FF35A361A56028BFE368107828BFA36125
:1019E000002383F3118870BD2B4683F3118870BDEB
:1019F0002DE9F0471E46044689469246D0F81C80E1
:101A0000202383F311880027B8F1000F05D020466A
:101A1000C04702E0FFF75CFFE0B9A5682046314609
:101A2000002DF7D0A369013D5A1CA261A5601B7867
:101A300009F8013B2369A2699A4224BFE368A361C4
:101A4000002383F311880137BA4506D0202383F39E
:101A50001188D9E72B4683F311883846BDE8F08713
:101A600030B4029C04628D180561406000608260A1
:101A700041618161C160C36130BC7047AFF30080D8
:101A800038B5C26803690446006862619B1AA042C7
:101A9000A261A3600AD06FF00105036823605C6057
:101AA000FEF716FE45622068A042F6D138BD00BFA1
:101AB000F8B504460F461646202383F3118803E049
:101AC000FFF706FF002819DBA56820463146002DE8
:101AD000F6D06369013D5A1C6261A5601F702369DD
:101AE00062699A4224BFE3686361E3690BB12046EF
:101AF0009847002383F311881846F8BD2B4683F3DB
:101B00001188F8BDAFF30080AFF30080AFF3008021
:101B100038B5826943699342836818D00569511CBE
:101B2000013383608161A94214780DD20268824238
:101B300008D01168016003464B601046FEF7C8FDEF
:101B400000234362204638BDC3688361EEE7002B63
:101B5000E4D06FF0020038BDAFF30080AFF3008037
:101B60002DE9F84F9A4604460E461746D0F81C90C9
:101B7000202383F311884FF00008A56806F1010BBC
:101B80006A1E20460DB36369A2605A1C62613278F6
:101B90001A70236962699A4224BFE3686361B9F1EC
:101BA000000F00D0C847002383F31188013F08F1DC
:101BB000010813D0202383F31188A5685E466A1EAE
:101BC00006F1010B2046002DDDD120465146FFF7DE
:101BD0007FFE0028D1D02B4683F311884046BDE814
:101BE000F88F00BFAFF30080AFF30080AFF3008049
:101BF000054A064B0648074922F0070223F007036F
:101C000002600B60704700BFB713002000A00020E7
:101C1000100A00200C0A0020AFF30080AFF3008010
:101C200010B4202383F31188094C0A4B22681968E9
:101C3000C31D23F00703891A8B429DBF9B182360A5
:101C400010460020002383F311885DF8044B704791
:101C5000100A00200C0A0020AFF30080AFF30080D0
:101C6000024A034B10681B68C01A70470C0A002018
:101C7000100A0020AFF30080AFF30080AFF30080C4
:101C8000044B054A1A6003F1100000229A60DA60E2
:101C9000FFF71EB9180A0020211C0008AFF30080CE
:101CA0000023083A81600360C36010304A600B6013
:101CB000FFF70EB9AFF30080AFF30080AFF3008001
:101CC000F8B51E4E002818BF0646073106F1100071
:101CD00021F0070506F10804FFF76AF903E04368FD
:101CE0009D4211D9044620680028F8D1FFF788F9F1
:101CF00033680BB305F108009847E8B1066045600A
:101D000000F108042046F8BD05F108029A4208D9FE
:101D100003682360044644F8086BFFF771F9204616
:101D2000F8BD6FF00701491B87180B44016881500B
:101D30007B6027604560EDE70024E3E7180A002098
:101D400070B50646A0F1080450F8080C00F108052B
:101D50001030FFF72DF92B46AB4204D0A34202D33B
:101D60001B68AB42FAD11A681AB1944201D31346E8
:101D7000F2E756F8041C46F8082C1C6001F1080232
:101D800056F8085CA018A84209D0596801F1080269
:101D90001A44944211D0BDE87040FFF731B9406851
:101DA000A25846F8082C0A18083246F8042C59683C
:101DB00001F108021A449442EDD116E905000A44E3
:101DC000083218605A60BDE87040FFF719B900BFCB
:101DD00038B50E4C002818BF044604F110000D461B
:101DE000FFF7E6F8A3686BB10022144658681B6839
:101DF00001340244002BF9D105B12A60FFF700F944
:101E0000204638BD1A461C46F6E700BF180A0020D7
:101E10000023416082600360704700BFAFF3008021
:101E200062B1202383F3118803680B6000230160F3
:101E300083F311884368013A1944F2D1704700BF17
:101E400008B50246202383F31188006828B103688F
:101E50001360002383F3118808BD9368002BF8D02A
:101E600050689847002383F3118808BDAFF30080C2
:101E7000202383F3118803680B600023016083F340
:101E800011887047AFF30080AFF30080AFF300809C
:101E9000014B01221A707047CD100020AFF3008073
:101EA00070B5094E4C243068074D03682D219B689E
:101EB0009847013CF7D128680449036802221B684F
:101EC000BDE87040184700BF001100208060000886
:101ED00010B370B5134A84B06D466C46A2FB001374
:101EE000DB0803EB8301A0EB410000F13001C9B234
:101EF00004F8011B1846002BF0D1AC420AD90A4E57
:101F0000013C01E014F8011D306803689B689847A4
:101F1000AC42F7D104B070BD034B186803683021A0
:101F20009B681847CDCCCCCC00110020AFF30080CB
:101F300038B50178044641B1044D286803689B68B0
:101F4000984714F8011F0029F7D138BD001100206F
:101F500070B50178094D044639B1286803689B685B
:101F6000984714F8011F0029F7D12868044903682D
:101F700002221B68BDE87040184700BF0011002016
:101F800080600008AFF30080AFF30080AFF3008003
:101F9000202383F31188044B1A68511C19601070B8
:101FA000002383F311887047D0100020AFF3008026
:101FB00059B910B40649074C074A01232370106031
:101FC0000B7018465DF8044B7047002318467047A5
:101FD000D4100020CC100020C8100020AFF30080E7
:101FE000F0B40E4E0E4F35683B4605E013F8014B3A
:101FF00011F8012B944207D1AB42F7D30B781BB9F0
:1020000037601846F0BC7047064C0749074A012361
:10201000237010600B701846F0BC7047D010002081
:1020200004110020CC100020D4100020C810002083
:102030000A4BDB68521A5B1A93420BD310B408495F
:10204000084C094A0123237010600B7018465DF894
:10205000044B704700231846704700BFE00900207A
:10206000D4100020CC100020C8100020AFF3008056
:1020700038B5064C04F1140554F8043B18460BB16E
:10208000FEF7DEFCAC42F7D138BD00BFEC100020FB
:1020900070B5074C002604F1140554F8040B18B170
:1020A000FEF746FD44F8046CAC42F6D170BD00BFAB
:1020B000EC100020AFF30080AFF30080AFF300809E
:1020C000104B114910B49C694FF47A7303FB00F074
:1020D000226A0138531CA1FB000103EB91118A42D3
:1020E000236A04D29A4204D95DF8044B70479A429D
:1020F000F5D9994294BF00230123002BEFD15DF85D
:10210000044B7047F0090020D34D6210AFF30080FC
:1021100008B50120FEF7A4FC014BD86808BD00BF3C
:10212000E0090020AFF30080AFF30080AFF3008040
:102130000C4B10B500241C70202383F311884FF43E
:102140007A7303FB00F1084B0848094A0139A3FBE5
:102150000131890923460131FEF73AFA234683F318
:10216000118810BDCD100020D34D6210D810002072
:10217000911E0008AFF30080AFF30080AFF3008042
:102180002DE9F04F9F4CA04D206083B09F48FFF792
:10219000DFFE9F48FFF7DCFE9E48FFF7D9FE2A21AD
:1021A000206803689B68984715F8011F0029F7D13C
:1021B00099489A4DFFF7CCFE2A21206803689B6856
:1021C000984715F8011F0029F7D19548954DFFF75D
:1021D000BFFE2A21206803689B68984715F8011FF5
:1021E0000029F7D19048914DFFF7B2FE2A212068CF
:1021F00003689B68984715F8011F0029F7D18C48A0
:102200008C4DFFF7A5FE2A21206803689B6898473C
:1022100015F8011F0029F7D18748884DFFF798FE70
:102220002A21206803689B68984715F8011F002938
:10223000F7D18348834DFFF78BFE2A21206803687E
:102240009B68984715F8011F0029F7D17E487F4DFC
:10225000FFF77EFE2A21206803689B68984715F8DF
:10226000011F0029F7D17A4B7A4800910193FFF7BB
:102270006FFE6648DFF81C82DFF888B1FFF768FE62
:10228000754B00991970009B01330093002658F894
:10229000263008EB8607002B00F086806F4DFFF795
:1022A000FFFD2D21206803689B68984715F8011FE2
:1022B0000029F7D100986A4DFFF70AFEDBF800000D
:1022C00003682E219B68013698473046FFF700FED1
:1022D0002021206803689B68984715F8011F002992
:1022E000F7D13B681D68297839B1206803689B687D
:1022F000984715F8011F0029F7D15A48DFF898913F
:10230000594DDFF878A1FFF723FEC820FEF7A8FBA0
:10231000564A3F68C5F800A00023136053609360DD
:10232000D36013617A6889F8003002B19047FB6886
:102330009847BB6803B19847FFF7AAFE99F80030A9
:10234000002B53D04A4F2D21206803689B68984783
:1023500017F8011F0029F7D1464B474F1868FFF7C0
:10236000B7FD2021206803689B68984717F8011F74
:102370000029F7D12B68534509D9404F206817F839
:10238000011B03689B6898472B689F42F6D33C4823
:10239000FFF7DEFD019BD3F8008058F8263008EBEC
:1023A0008607002B7FF47AAF019B53F8048F0193CB
:1023B000B8F1000F7FF467AFFFF772FD314D13489E
:1023C000FFF7C6FD4621206803689B68984715F80B
:1023D000011F0029F7D1204B1B785BB92A48FFF772
:1023E000B7FD1D4B187803B0BDE8F08F2748FFF705
:1023F000AFFD4CE72648FFF7ABFD174B187803B04D
:10240000BDE8F08F00110020846000085C6A0008BD
:102410006461000880610008A861000898600008F5
:10242000B0610008AC600008C8610008C060000826
:1024300010620008D46000081C620008E860000810
:1024400028620008FC600008406200081061000873
:102450008062000858620008D4100020246100083F
:102460003461000884610008D0100020EC100020C6
:1024700038610008C81000205061000804110020D5
:102480008861000854610008986100088C610008A8
:10249000A0610008F0620008CC100020AFF30080BB
:1024A000F0B5274F274EBB69274D9A68274B3068F8
:1024B000274C83B0053A00934FF4A8712B46FEF7E2
:1024C0004FFABB6923499A68736820600091043A07
:1024D00018464FF4A8712B46FEF742FABA69B36862
:1024E00092681D4960600091033A18464FF4A87144
:1024F0002B46FEF735FABA69F36892681749A0606F
:102500000091023A18464FF4A8712B46FEF728FABC
:10251000BA69336992681249E060013A009118463D
:102520004FF4A8712B46FEF71BFA2061FFF7B0FDB0
:102530000C49012003B0BDE8F040FFF751BD00BFDA
:10254000F00900206060000871250008246300087D
:10255000EC100020106300081463000818630008E2
:102560001C63000820630008AFF30080AFF3008015
:1025700008B50078FFF70CFD002008BDAFF3008020
:10258000F0B52B4F2B4EBB692B4D9A682B4B7068C7
:102590002B4C83B0043A00934FF4A8712B46FEF7FE
:1025A000DFF9BB6927499A68336860600091053A92
:1025B00018464FF4A8712B46FEF7D2F9BA69336971
:1025C0009268214920600091013A18464FF4A871A1
:1025D0002B46FEF7C5F9BA69F36892681B4920617A
:1025E0000091023A18464FF4A8712B46FEF7B8F94D
:1025F0002023E06083F31188BB69B0689A68144BAC
:102600000093033A2B464FF4A871FEF771F90023AB
:10261000A06083F31188A068FEF702FAFFF738FD87
:102620000C49012003B0BDE8F040FFF7D9BC00BF62
:10263000F0090020606000087125000810630008A0
:10264000EC100020246300081C63000818630008D5
:102650001463000820630008AFF30080AFF300802C
:10266000F8B54A4EB3699C68651C2846FEF7C0F968
:10267000011B0746B1FA81F101204909FFF798FCD7
:1026800000B1F8BDB36999680220691AB1FA81F105
:102690004909FFF78DFC0028F3D13846FEF7A8F969
:1026A000291A0320B1FA81F14909FFF781FC0028BA
:1026B000E7D1B36999680420091BB1FA81F149098E
:1026C000FFF776FC0028DCD1202383F31188B16961
:1026D0008B689A1C8A60034683F31188B3699968F2
:1026E000A71CC91B0520B1FA81F14909FFF760FC5D
:1026F0000028C6D12846FEF77BF9011B0620B1FA57
:1027000081F14909FFF754FC0028BAD1B3699968EF
:102710000720791AB1FA81F14909FFF749FC00282D
:10272000AFD1B369196C0820691AB1FA81F149096E
:10273000FFF73EFC0028A4D1E71C3846FEF758F905
:10274000281A414241410920FFF732FC002898D164
:10275000B36999687A1A514251410A20FFF728FC5F
:1027600000288ED1B369196C7B1A594259410B204C
:10277000FFF71EFC002884D1202383F31188B2695F
:1027800003469460146483F311887AE7F00900200B
:1027900038B51C4DFFF7BCFCEC686420FEF760F90F
:1027A00004F1640104F165020120FFF741FC00B16E
:1027B00038BDEC686420FEF753F904F1640104F1BC
:1027C00065020220FFF734FC0028F1D1EC684FF4D9
:1027D0007A70FEF745F904F57A7104F2E9320320C4
:1027E000FFF726FC0028E3D1EC6804F164052846D5
:1027F000FEF746F9294604F165020420BDE8384099
:10280000FFF716BCE0090020AFF30080AFF30080B3
:102810002DE9F043444E454FB369D7F800809A68DC
:10282000DFF82C91424B434D434C83B005324FF4BB
:10283000A871CDF800904046FEF792F8B369796828
:102840009A683E4B28600132084600934FF4A87105
:10285000374BFEF785F8B369B9689A68384B6860FA
:102860000332084600934FF4A871314BFEF778F815
:10287000B369F9689A68334BA8600432084600933C
:102880004FF4A8712A4BFEF76BF8B36939699A685F
:102890002D4BE8600232084600934FF4A871244B98
:1028A000FEF75EF828612046FEF792FA2046FEF712
:1028B0008FFA2046FEF78CFA2046FEF789FA20466A
:1028C000FEF786FAFFF7E4FB01202049FFF788FBBB
:1028D000074610B103B0BDE8F083B269144B9268AB
:1028E000CDF80090053240464FF4A871FEF738F855
:1028F0002023286083F3118802212046FEF798FAEE
:10290000FDF7AEFF3B4683F31188FFF7C1FBA168DB
:102910000220A1F10101B1FA81F1490903B0BDE83A
:10292000F043FFF745BB00BFF009002060600008DE
:1029300081290008EC10002000080020186300081E
:102940001463000810630008246300082063000873
:102950001C630008AFF30080AFF30080AFF300808A
:1029600010B5044C2046FEF7DBF92046FEF730FA9E
:10297000002010BD00080020AFF30080AFF30080FE
:1029800010B504460348FEF7CBF92078FFF700FBAB
:10299000002010BD00080020AFF30080AFF30080DE
:1029A00001480021FEF78CB900080020AFF3008039
:1029B00001480021FEF784B900080020AFF3008031
:1029C00001480021FEF77CB900080020AFF3008029
:1029D00008B53220FEF744F8202383F31188054818
:1029E000FEF716FAFDF73CFF002383F31188184623
:1029F00008BD00BF00080020AFF30080AFF30080E7
:102A000008B5202383F311888368002B06DDFDF7CA
:102A100027FF002383F31188184608BDFEF7F8F955
:102A2000F5E700BFAFF30080AFF30080AFF30080A5
:102A300000B587B003A80021FEF742F903A80021E2
:102A4000FEF75EF905990029CCBF00210121012084
:102A5000FFF7AEFA10B107B05DF804FB314B324A14
:102A60009B6910689A68314B03A90091013A4FF4B1
:102A7000A871FDF775FF2E4B186003A8FEF750F9FB
:102A800005990029CCBF002101210220FFF790FA0F
:102A90000028E0D1202383F31188059B002B38DD2B
:102AA000FDF7DEFE002383F3118805999942D4BF18
:102AB000002101210320FFF77BFA0028CBD10599E3
:102AC0000420A1F10101B1FA81F14909FFF770FA7F
:102AD0000028C0D1202383F31188059B002B1CDD27
:102AE000FDF7BEFE002383F3118805999942D4BFF8
:102AF000002101210320FFF75BFA0028ABD10599E3
:102B00000520A1F10101B1FA81F14909FFF750FA5D
:102B1000A1E703A8FEF77CF9C2E703A8FEF778F95E
:102B2000DEE700BFF009002060600008012A00080D
:102B3000EC100020AFF30080AFF30080AFF3008013
:102B400070B54A4C82B000212046FEF731F9A0F161
:102B5000FF310120B1FA81F14909FFF729FA08B1E3
:102B600002B070BD21680220091BB1FA81F1490948
:102B7000FFF71EFA0028F3D1A168B1FA81F1032012
:102B80004909FFF715FA0028EAD1394B394A9B6900
:102B900011689A68384B0090013A08464FF4A871C2
:102BA000FDF7DEFE354B4FF4FA7118602046FEF754
:102BB000FFF80546FFF76CFAB5FA85F104204909DC
:102BC000FFF7F6F90028CBD121680520091BB1FADF
:102BD00081F14909FFF7ECF90028C1D1A168B1FAE8
:102BE00081F106204909FFF7E3F90028B8D1FFF782
:102BF0008FFA234BDE6841252846FFF7C9F94FF4C9
:102C0000FA711A48FEF7D4F8A0F1FF310720B1FAA3
:102C100081F14909FFF7CCF90028A1D121680820EA
:102C2000091BB1FA81F14909FFF7C2F9002897D1D0
:102C3000A168B1FA81F109204909FFF7B9F9013515
:102C4000EDB200288CD1462DD6D10A200D49FFF7D0
:102C5000C7F9002884D10B2006F6C41106F6C91264
:102C600002B0BDE87040FFF7E3B900BF00080020E4
:102C7000F009002060600008D1290008EC10002055
:102C8000E009002020630008AFF30080AFF300806C
:102C900010B5204B204A9B6910689A681F4B204C46
:102CA00082B00021013200914FF4A871FDF758FE67
:102CB0001C4B214618602046FEF7D2F821680120FF
:102CC000091BB1FA81F14909FFF772F908B102B0A5
:102CD00010BDA168B1FA81F102204909FFF768F936
:102CE0000028F4D121462046FEF7BAF821680320D7
:102CF000091BB1FA81F14909FFF75AF90028E6D119
:102D0000A168B1FA81F10420490902B0BDE8104080
:102D1000FFF74EB9F0090020606000086129000843
:102D200000080020EC100020AFF30080AFF300801B
:102D3000F0B52B4F2B4EBB692B489C682B4D83B0B5
:102D4000FEF736F92A4B0093621C4FF4A871294B09
:102D50003068FDF705FE7168274B2860A21C084605
:102D600000934FF4A871234BFDF7FAFDB168234B94
:102D70006860E21C084600934FF4A8711D4BFDF7F4
:102D8000EFFDF1681E4BA860221D084600934FF42A
:102D9000A871184BFDF7E4FD31691A4BE860621D1C
:102DA000084600934FF4A871124BFDF7D9FD286136
:102DB000FEF726F9FFF76CF9BB6999680120091B3A
:102DC000B1FA81F14909FFF7F3F808B103B0F0BD9A
:102DD0000D49022003B0BDE8F040FFF701B900BF84
:102DE000F0090020606000080C080020EC100020B2
:102DF00024630008112E0008106300081463000803
:102E0000186300081C63000820630008AFF300800B
:102E100010B504460448FEF7CBF82078FFF7B8F861
:102E2000FEF7EEF8002010BD0C080020AFF3008084
:102E300010B504460448FEF7BBF82078FFF7A8F861
:102E4000FEF7DEF8002010BD1C080020AFF3008064
:102E50000148FEF73DB800BF0C080020AFF300802A
:102E60000148FEF735B800BF0C080020AFF3008022
:102E700008B50448FEF72CF80348BDE80840FEF703
:102E800027B800BF0C0800201C080020AFF300800A
:102E900008B50448FEF71CF80348BDE80840FEF7F3
:102EA00017B800BF0C0800201C080020AFF30080FA
:102EB0000148FEF70DB800BF0C080020AFF30080FA
:102EC0002DE9F041204F214E214C82B0FFF720F92F
:102ED000BB6920499A68D1F80C801F4B30680025E7
:102EE000013A4FF4A8710095FDF73AFDBA6973688D
:102EF00092682060023A18464FF4A871174B00956B
:102F0000FDF72EFDBA69B368926860604FF4A8714E
:102F1000033A18460095124BFDF722FDA060FFF71B
:102F2000B7F801200F49FFF75BF810B102B0BDE818
:102F3000F081022008F1640108F1690202B0BDE8E5
:102F4000F041FFF775B800BFF0090020606000088D
:102F5000EC100020E0090020C1300008A13000087A
:102F600051300008A0640008AFF30080AFF3008088
:102F70002DE9F0412C4F2D4E2D4C82B0FFF7C8F8B3
:102F8000BB692C499A68D1F80C802B4B306800251E
:102F9000053A4FF4A8710095FDF7E2FCBA69736831
:102FA00092682060043A18464FF4A871234B0095AC
:102FB000FDF7D6FCBA69B36892686060033A1846B8
:102FC0004FF4A8711E4B0095FDF7CAFCBA69F3686F
:102FD0009268A060023A18464FF4A871194B009508
:102FE000FDF7BEFCBA6933699268E0604FF4A871DE
:102FF000013A18460095144BFDF7B2FC2061FFF72B
:1030000047F801201149FEF7EBFF10B102B0BDE80F
:10301000F081022008F16E0108F1730202B0BDE8F0
:10302000F041FFF705B800BFF0090020606000081C
:10303000EC100020E0090020813000087131000808
:103040004131000821310008F130000820630008F8
:1030500008B50848FDF7ACFF2820FFF731F8FDF769
:10306000CFFF0A20FFF72CF84320FEF791FF002046
:1030700008BD00BF0C080020AFF30080AFF3008054
:1030800008B50648FDF794FF1E20FFF719F8FDF775
:10309000B7FF4520FEF77CFF002008BD0C0800208C
:1030A00008B51420FDF7DCFC2820FFF709F84220C2
:1030B000FEF76EFF002008BDAFF30080AFF3008085
:1030C00008B52820FDF7CCFC0648FDF771FF0A2063
:1030D000FEF7F6FFFDF794FF4120FEF759FF0020B1
:1030E00008BD00BF0C080020AFF30080AFF30080E4
:1030F00008B53220FDF7B4FC0648FDF759FF0A2059
:10310000FEF7DEFFFDF77CFF4120FEF741FF0020C8
:1031100008BD00BF1C080020AFF30080AFF30080A3
:1031200008B52820FDF79CFC1420FEF7C9FF4220BB
:10313000FEF72EFF002008BDAFF30080AFF3008044
:1031400008B51420FDF78CFC0648FDF731FF0A2076
:10315000FEF7B6FFFDF754FF4320FEF719FF0020EE
:1031600008BD00BF1C080020AFF30080AFF3008053
:1031700008B50A20FDF774FC0B48FDF719FF142071
:10318000FEF79EFF0948FDF713FF0A20FEF798FFA0
:10319000FDF736FF0A20FEF793FFFDF731FF4420CD
:1031A000FEF7F6FE002008BD1C0800200C080020D9
:1031B00008B59620FDF754FC0348FDF7F9FEFDF72E
:1031C0001FFF002008BD00BF0C080020AFF30080E7
:1031D00008B53220FDF744FC0348FDF7E9FEFDF792
:1031E0000FFF002008BD00BF1C080020AFF30080C7
:1031F0002DE9F0468A4D8B4EAB6932689C688A4B4C
:103200008A4F85B004F101091046039200934A46A3
:103210004FF4A871864BFDF7A3FB7668854B3860A9
:1032200004F1020A4FF4A871524600933046824BD3
:10323000FDF796FB78608148FDF7BAFEAB699968A7
:103240000120091BB1FA81F14909FEF7B1FE10B165
:1032500005B0BDE8F0866420FDF702FCAB69996813
:103260000220C9EB0101B1FA81F14909FEF7A0FE84
:103270000028EDD17248FDF79BFEAB6999680320E9
:10328000C9EB0101B1FA81F14909FEF791FE00286D
:10329000DED16420FDF7E4FBAB6999680420CAEB3A
:1032A0000101B1FA81F14909FEF782FE0028CFD170
:1032B000FDF7A6FEAB6999680520C9EB0101B1FADB
:1032C00081F14909FEF774FE0028C1D16420FDF7A1
:1032D000C7FBAB6999680620C9EB0101B1FA81F11E
:1032E0004909FEF765FE0028B2D1FDF7E9FEAB699A
:1032F00099680720091BB1FA81F14909FEF758FEC8
:103300000028A5D1FEF7C4FE4E4B00934FF4A871E0
:103310004A46474B0398FDF723FB4B4B38604FF46D
:10332000A87100935246444B3046FDF719FB786074
:103330004248FDF73DFEAB6999680820091BB1FAC8
:1033400081F14909FEF734FE002881D16420FDF7A0
:1033500087FBAB699968C9EB010CDCF1000141EB1B
:103360000C010920FEF724FE00287FF471AF3448D9
:10337000FDF71EFEAB699968C9EB010EDEF1000195
:1033800041EB0E010A20FEF713FE00287FF460AF28
:103390006420FDF765FBAB699968CAEB01077942C8
:1033A0004FF00B007941FEF703FE064600287FF43C
:1033B0004FAF202383F31188FDF75AFEFDF750FA33
:1033C000334683F31188AB699968C9EB01067142F2
:1033D00071410C20FEF7ECFD00287FF439AF64202A
:1033E000FDF73EFBAB699968C9EB010251425141BF
:1033F0000D20FEF7DDFD00287FF42AAFFDF760FE0B
:10340000AB6999680B1B594259410E20FEF7D0FD5C
:1034100000287FF41DAF05B0BDE8F046FEF738BECA
:10342000F00900206060000818630008EC1000201C
:10343000D13100081C630008B13100081C080020CD
:103440000C0800201063000814630008AFF300802C
:10345000F8B52B4D2B4CAB6920469E68FDF7B8FDA7
:1034600001460120FEF7A4FD00B1F8BD2046FDF79E
:10347000AFFD80F00101C9B20220FEF799FD0746B9
:103480000028F2D1202383F31188FDF7F1FD3B469C
:1034900083F3118821680320091BB1FA81F14909DE
:1034A000FEF786FD0028E0D1A168B1FA81F1042081
:1034B0004909FEF77DFD0028D7D1AB699968052041
:1034C000891BB1FA81F14909FEF772FD0028CCD1C0
:1034D0002046FDF76DFDFDF7F3FD21680620091B71
:1034E000B1FA81F14909FEF763FD0028BDD1A16859
:1034F000B1FA81F107204909BDE8F840FEF758BD4F
:10350000F00900200C080020AFF30080AFF300802A
:10351000F0B52F4B2F4F9B692F4D9E682F4B38686E
:103520002F4C83B0721C00934FF4A8712B46FDF70B
:1035300017FA7B682B492060B21C009118464FF4A3
:10354000A8712B46FDF70CFABB6827496060F21C96
:10355000009118464FF4A8712B46FDF701FAFB685D
:103560002249A060321D009118464FF4A8712B46E5
:10357000FDF7F6F93B691E49E060721D009118469F
:103580004FF4A8712B46FDF7EBF92023206183F35C
:103590001188184C2046FDF7E3FD2046FDF7E0FDBD
:1035A0002046FDF7DDFD2046FDF7DAFD2046FDF75C
:1035B000D7FDFDF755F9002383F31188FEF768FD69
:1035C0000D49012003B0BDE8F040FEF709BD00BF82
:1035D000F00900206060000801360008246300083C
:1035E000EC10002010630008146300081863000842
:1035F0001C6300082C08002020630008AFF3008043
:1036000010B504460648FDF7D3FC0648FDF708FE52
:103610002078FEF7BDFCFDF7F3FC002010BD00BFD5
:103620000C0800202C080020AFF30080AFF30080CE
:1036300008B50448FDF774FD0348BDE80840FDF7F0
:1036400047BC00BF2C0800200C080020AFF300800E
:1036500008B50448FDF764FD0348BDE80840FDF7E0
:1036600037BC00BF2C0800200C080020AFF30080FE
:1036700008B50548FDF754FD0448FDF729FC04484A
:10368000BDE80840FDF724BC2C0800200C080020F1
:103690001C080020AFF30080AFF30080AFF3008080
:1036A000F0B5244B244F9B69244D9E68244B386809
:1036B000244C83B0721C00934FF4A8712B46FDF785
:1036C0004FF97B6820492060B21C009118464FF4E6
:1036D000A8712B46FDF744F9BB681C496060F21CD9
:1036E000009118464FF4A8712B46FDF739F9FB6895
:1036F0001749A060321D009118464FF4A8712B465F
:10370000FDF72EF93B691349E060721D00911846E0
:103710004FF4A8712B46FDF723F920610E48FDF701
:1037200047FDFEF7B5FC0D49012003B0BDE8F040B0
:10373000FEF756BCF0090020606000080136000862
:1037400024630008EC1000201063000814630008D4
:10375000186300081C6300082C0800202063000880
:10376000F0B51B4B1B4E9B6930689D681A4B1B4C78
:103770001B4F83B06A1C00934FF4A871194BFDF7DF
:10378000EFF87168184B2060AA1C00930846174B8D
:103790004FF4A871FDF7E4F8B168154B6060EA1CBE
:1037A00000930846134B4FF4A871FDF7D9F8A060B9
:1037B0003846FDF7BDFC3846FDF7BAFCFEF768FC5D
:1037C0000D49012003B0BDE8F040FEF709BC00BF81
:1037D000F0090020606000081C630008EC10002065
:1037E0002C08002001380008146300080136000886
:1037F00018630008312E0008A0640008AFF30080B1
:1038000010B504460948FDF7D3FB0948FDF7D0FB86
:103810004FF0FF310748FDF73BFD2078FEF7B8FB7E
:10382000FDF7EEFBFDF7ECFB002010BD1C080020AF
:103830000C0800202C080020AFF30080AFF30080BC
:1038400010B5184A184B916918688A68174B82B0EE
:10385000013200914FF4A871FDF782F8144B186003
:10386000FDF7E6FE446B2146FDF702FFE0B2FEF7EE
:103870008FFBFDF7DDFE446B2146FDF7F9FEE0B25C
:10388000FEF786FBFDF7D4FE446B2146FDF7F0FE04
:10389000E0B2FEF77DFB0749012002B0BDE8104011
:1038A000FEF79EBBF009002060600008C1380008E8
:1038B000EC100020A0640008AFF30080AFF300809C
:1038C00010B541210446FDF793FE20464221FDF745
:1038D0008FFE20464321FDF78BFE002010BD00BF68
:1038E000F0B5B04E716A83B0A1F105010120B1FAC3
:1038F00081F14909FEF75CFBF0B94224A94D21464C
:103900004FF0FF322846FDF71BFFB0FA80F102208E
:103910004909FEF74DFB013470B9462CEED1412127
:1039200028464FF0FF32FDF75BFFB0FA80F103202D
:103930004909FEF73DFB08B103B0F0BD5821012253
:103940002846FDF7FDFEA0F1FF310420B1FA81F118
:103950004909FEF72DFB04460028EDD1202383F30F
:10396000118858212846FDF7FBFE2346014683F3C4
:1039700011880520A1F1FF31B1FA81F14909FEF763
:1039800017FB0028D8D1582101222846FDF728FF2F
:10399000A0F1FF310620B1FA81F14909FEF708FBD9
:1039A00004460028C8D1202383F3118858212846D3
:1039B000FDF726FF2346014683F311880720A1F176
:1039C000FF31B1FA81F14909FEF7F2FA0746002802
:1039D000B2D1202383F311880820696AB1FA81F1FA
:1039E0004909FEF7E5FA044618B13B4683F311880E
:1039F000A2E7034683F31188202383F31188A96982
:103A00004F1F79424FF009007941FEF7D1FA034682
:103A100018B1234683F311888EE783F3118820239E
:103A200083F31188E968AB68CC1A61424FF00A0051
:103A30006141FEF7BDFA0023002840F09A8083F32D
:103A40001188052505E09DF80400FEF7A1FA013D67
:103A50000FD0544C01A920464FF0FF32FDF708FF6C
:103A6000B0FA80F10B204909FEF7A2FA0028EAD04B
:103A700062E70C204C49FEF7B3FA00287FF45CAFF4
:103A8000472120464FF0FF32FDF75AFEB0FA80F191
:103A90000D204909FEF78CFA00287FF44DAF01A9EB
:103AA00020464FF0FF32FDF7E3FEB0FA80F10E2022
:103AB0004909FEF77DFA00287FF43EAF2168A3682C
:103AC000CA1A514251410F20FEF772FA00287FF4C2
:103AD00033AF2168E368CB1A594259411020FEF7F1
:103AE00067FA00287FF428AF01A920460122FDF7DC
:103AF000BFFE00F1010CDCF1000141EB0C011120D3
:103B0000FEF756FA00287FF417AF202383F31188BD
:103B100001A92046FDF7BCFE2B46014683F3118820
:103B200001F1010EDEF1000141EB0E011220FEF762
:103B30003FFA00287FF400AF202383F31188616AE5
:103B40004F1F79424FF013007941FEF731FA0023FD
:103B500078B983F31188202383F311881420B16985
:103B6000B1FA81F14909FEF723FA0E4C054618B166
:103B7000002383F31188DFE6034683F311882023B3
:103B800083F31188E168A368CE1A71424FF01500E3
:103B90007141FEF70DFA034640B12B4683F31188BD
:103BA000CAE600BF340800202063000883F31188B0
:103BB000202383F3118841212046FDF7D1FDB0FA7F
:103BC00080F116204909FEF7F3F900287FF4B4AE1E
:103BD00042212046FDF7C4FDB0FA80F117204909C3
:103BE000FEF7E6F900287FF4A7AE43212046FDF753
:103BF000B7FDB0FA80F118204909FEF7D9F900287D
:103C00007FF49AAE44212046FDF7AAFDB0FA80F178
:103C100019204909FEF7CCF9054600287FF48CAE3F
:103C200020464521FDF79CFD2B46014683F3118874
:103C30001A20B1FA81F14909FEF7BAF900287FF498
:103C40007BAEE168A368CC1A614261411B20FEF79C
:103C5000AFF900287FF470AE0525202383F3118887
:103C60009A4C01A92046FDF713FE0023014683F379
:103C700011881C20B1FA81F14909FEF799F9002851
:103C80007FF45AAE9DF80400FEF782F9013DE4D1BD
:103C90001D208F49FEF7A4F900287FF44DAE2023A4
:103CA00083F31188616A4A1F51424FF01E0051414F
:103CB000FEF77EF92B4600287FF45BAF83F3118873
:103CC000202383F311881F20A169B1FA81F14909EA
:103CD000FEF76EF92B4600287FF44BAF83F3118873
:103CE000E168A368CB1A594259412020FEF760F9D8
:103CF00000287FF421AE202383F31188452120463C
:103D0000FDF77EFDB0FA80F121204909FEF750F958
:103D100000287FF411AE44212046FDF771FDB0FA72
:103D200080F122204909FEF743F900287FF404AE10
:103D300043212046FDF764FDB0FA80F123204909B4
:103D4000FEF736F900287FF4F7AD42212046FDF753
:103D500057FDB0FA80F124204909FEF729F900281F
:103D60007FF4EAAD594C41212046FDF749FD00237F
:103D7000014683F311882520B1FA81F14909FEF744
:103D800017F900287FF4D8ADE168A368C3EB010CF4
:103D9000DCF1000141EB0C012620FEF709F90028B7
:103DA0007FF4CAAD0524202383F31188474D01A970
:103DB0002846FDF76DFD0023014683F31188272077
:103DC000B1FA81F14909FEF7F3F800287FF4B4ADA8
:103DD0009DF80400FEF7DCF8013CE4D128203C49C2
:103DE000FEF7FEF800287FF4A7AD202383F31188A7
:103DF000696AA1F1050EDEF100014FF0290041EBE7
:103E00000E01FEF7D5F8234600287FF4B2AE83F307
:103E10001188202383F311882A20A969B1FA81F13E
:103E20004909FEF7C5F8234600287FF4A2AE83F3C4
:103E30001188E968AB68CF1A794279412B20FEF7E7
:103E4000B7F800287FF478AD2846FDF739FC202329
:103E500083F31188696A4E1F71424FF02C00714143
:103E6000FEF7A6F8234600287FF483AE83F311887B
:103E7000202383F311882D20A969B1FA81F1490922
:103E8000FEF796F8234600287FF473AE83F311887B
:103E9000202383F311882968AB68CA1A51424FF076
:103EA0002E005141FEF784F8234600287FF461AECE
:103EB00083F31188202383F311882968EB68CB1AD8
:103EC000594259412F20FEF773F851E6340800207B
:103ED00020630008AFF30080AFF30080AFF30080F1
:103EE000024803490522FDF7D3BB00BF3408002078
:103EF000380A0020AFF30080AFF30080AFF30080FA
:103F000010B51D4C88B02046694601222460FDF79B
:103F1000CFF9204604A90222FDF7CAF92168091B3E
:103F200018BF01210120FEF743F808B108B010BD09
:103F300069462046FDF7D4F92168091B18BF012105
:103F40000220FEF735F80028F0D104A92046FDF73D
:103F5000C7F921680320091BB1FA81F14909FEF76D
:103F600027F80028E2D105480721FDF739FA04496E
:103F70000420FEF735F8D9E75C0800200067000848
:103F8000A0640008AFF30080AFF30080AFF30080BF
:103F90004320FDF7FDBF00BFAFF30080AFF300800B
:103FA0004220FDF7F5BF00BFAFF30080AFF3008004
:103FB0004120FDF7EDBF00BFAFF30080AFF30080FD
:103FC0004FF0FF30FDF7A4B9AFF30080AFF30080EE
:103FD0004FF0FF30FDF79CB9AFF30080AFF30080E6
:103FE0004FF0FF30FDF794B9AFF30080AFF30080DE
:103FF0002DE9F04205208CB0FDF79AF94FF0FF3023
:10400000FDF70EFAA0F101010120B1FA81F1490991
:10401000FDF7CEFF10B10CB0BDE8F0824FF0FF30DD
:10402000FDF7FEF9A0F104010220B1FA81F149097E
:10403000FDF7BEFF0028EED14FF0FF30FDF768F925
:10404000B0FA80F103204909FDF7B2FF0028E2D160
:10405000704E714F714DFEF75BF8B36970499A6805
:1040600009680093013A039108466E4BFC684FF4CF
:10407000A871FCF775FC28604FF0FF30FDF7D0F910
:1040800004F13201814604F137020420FDF7D0FF2C
:104090000028C0D1A9F101010520B1FA81F1490937
:1040A000FDF786FF0028B6D14FF0FF30FDF730F95D
:1040B000B0FA80F106204909FDF77AFF0028AAD15D
:1040C000FDF7E6FF0520FDF733F94FF0FF30FDF770
:1040D000C7F9441F614261410720FDF769FF0028CD
:1040E00099D14FF0FF30FDF713F9B0FA80F10820B5
:1040F0004909FDF75DFF00288DD1FEF709F8B16988
:10410000484B8A6803980091013A4FF4A871FC6803
:10411000FCF726FC28604FF0FF30FDF7A1F904F111
:104120003201814604F137020920FDF781FF0028A2
:104130007FF471AF09F1FF30414241410A20FDF7A0
:1041400037FF00287FF467AF4FF0FF30FDF7E0F84E
:10415000B0FA80F10B204909FDF72AFF00287FF40F
:104160005AAFDFF8D090304CFDF792FF484604A9D3
:104170000122C9F800902460FDF79AF808A90422EA
:104180002046FDF795F8FDF7C3FFB36927499A6804
:1041900003980091013A4FF4A871254BFE68FCF793
:1041A000DFFB28600520FDF77BF906F1320106F1FF
:1041B00037020C20FDF73CFF00287FF42CAF4FF0B6
:1041C000FF30FDF7A5F8B0FA80F10D204909FDF7A1
:1041D000EFFE00287FF41FAFFDF75AFF484604A901
:1041E000FDF77EF8204608A9FDF77AF8D9F8001007
:1041F000C9EB0102514251410E20FDF7D9FE0028C2
:104200007FF409AF21680B1B594259410F20FDF77C
:10421000CFFE00E7F0090020E0090020EC100020AC
:104220006060000871420008600800201C630008FC
:10423000414200085C080020AFF30080AFF300802B
:1042400008B500210548FDF7BBF83220FCF708FC53
:1042500003480021FDF7B4F8002008BD5C080020E9
:1042600060080020AFF30080AFF30080AFF3008060
:1042700010B504463220FCF7F3FB20460121FDF780
:104280008FF8002010BD00BFAFF30080AFF30080B7
:1042900008B500214FF0FF30FDF722F9B0FA80F1A8
:1042A00001204909FDF784FE00B108BD01464FF029
:1042B000FF30FDF745F9B0FA80F102204909FDF71A
:1042C00077FE0028F1D101464FF0FF30FDF768F985
:1042D000B0FA80F103204909FDF76AFE0028E4D115
:1042E0000A214FF0FF30FDF7FBF8B0FA80F104200F
:1042F0004909FDF75DFE0028D7D10A214FF0FF30B4
:10430000FDF71EF9B0FA80F105204909FDF750FECE
:104310000028CAD10A214FF0FF30FDF741F9BDE86E
:104320000840B0FA80F106204909FDF741BE00BF00
:1043300070B582B0FDF794FC01A90020FDF748FD9F
:1043400010210020FDF7BCFC011C054618BF01210F
:104350000120FDF72DFE044608B102B070BD2846CD
:10436000FDF7EEFC6FF0FF012046FDF7A9FCB0FA67
:1043700080F102204909FDF71BFE0028EDD101A9BB
:104380007B48FDF725FD10217948FDF799FC1021A8
:1043900006467748FDF794FC102105467448FDF762
:1043A0008FFC04463046FDF7CBFC2846FDF7C8FCE1
:1043B0002046FDF7C5FC69466D48FDF709FDA0F1F3
:1043C00001010320B1FA81F14909FDF7F1FD00284F
:1043D000C3D110216648FDF773FC102104466448E0
:1043E000FDF76EFC102105466148FDF769FCFDF7FD
:1043F000A7FC2846FDF7A4FC2046FDF7A1FC694672
:104400005B48FDF7E5FCA0F101010420B1FA81F160
:104410004909FDF7CDFD00289FD111215448FDF732
:104420004FFC102104465248FDF74AFC0546204641
:10443000FDF786FC69464E48FDF7CAFCA0F1020173
:104440000520B1FA81F14909FDF7B2FD002884D1B8
:1044500010214748FDF734FC694604464448FDF7FF
:10446000B7FC012800F0818069464148FDF7B0FCA7
:10447000A0F10201B1FA81F149090620FDF798FD8A
:1044800000287FF46AAF2846FDF75AFC2046FDF766
:1044900057FC69463648FDF79BFC461E7142714148
:1044A0000720FDF785FD00287FF457AF1021304825
:1044B000FDF706FC102105462D48FDF701FC0446DA
:1044C0002846FDF73DFC69462948FDF781FC851E1D
:1044D000694269410820FDF76BFD00287FF43DAF7C
:1044E00020212348FDF7ECFBFDF72AFC2046FDF7D1
:1044F00027FC69461E48FDF76BFC013841424141EB
:104500000920FDF755FD00287FF427AF69461848BC
:10451000FDF75EFC00991648FDF7D2FB694604469C
:104520001348FDF755FCB0FA80F10A204909FDF760
:104530003FFD00287FF411AF2046FDF701FC6946DE
:104540000B48FDF745FC421E514251410B20FDF73F
:104550002FFD00287FF401AF9DE80A00CB1A5942D5
:1045600059410C20FDF724FDF7E6014685E700BF21
:1045700018110020AFF30080AFF30080AFF300808C
:10458000024803494FF4D262FDF78ABB181100209C
:10459000380A0020AFF30080AFF30080AFF3008053
:1045A00000207047AFF30080AFF30080AFF30080CE
:1045B00002484FF4A8710022FDF72ABC64080020CD
:1045C00038B52B4B2B481D6805222946FDF728FCE2
:1045D00005242848FDF734FC011C18BF01210120E7
:1045E000FDF7E6FC90BB013CF3D12248FDF728FC27
:1045F000B0FA80F102204909FDF7DAFC30BB1C4C0F
:104600001C48294604F11005FDF732FCAC4206D0E7
:1046100054F8041F1748FDF72BFCAC42F8D10524D1
:104620001448FDF70DFC011C18BF01210320FDF704
:10463000BFFC58B9013CF3D10E48FDF701FCB0FABC
:1046400080F104204909FDF7B3FC00B138BD102109
:104650000848094AFDF7DCFB0648FDF7F1FBBDE819
:104660003840B0FA80F105204909FDF7A1BC00BF30
:104670006060000864080020A1450008AFF30080D6
:1046800070B5344B34489B69344C9D6884B003A9A1
:10469000FDF79EFB324B00936A1E324B2E484FF4BF
:1046A000A871FCF79DFA304B2060AA1E00934FF4CE
:1046B000A8712C4B2848FCF793FA02A960602648A1
:1046C000FDF786FB02992448FDF7FAFA274B009381
:1046D0004FF4A8710646EA1E224B1F48FCF780FAE9
:1046E000A0603046FDF72CFB216821B1616811B153
:1046F000A16831B300210120FDF75AFC08B104B0D4
:1047000070BDFDF7C5FC02201949FDF769FC0028C2
:10471000F5D102A91048FDF75BFBA0F101010320D0
:10472000B1FA81F14909FDF743FC0028E7D102996C
:10473000039B0420C91AB1FA81F14909FDF738FC3D
:10474000DDE7E368002BD6D12169B1FA81F149098F
:10475000D1E700BFF009002048110020EC10002034
:104760001C630008814700081863000814630008F0
:10477000E0670008AFF30080AFF30080AFF3008084
:1047800008B50078FDF704FC002008BDAFF30080F9
:10479000024803494FF4D262FDF782BA4811002063
:1047A000380A0020AFF30080AFF30080AFF3008041
:1047B000024803494FF4D262FDF772BA4811002053
:1047C000380A0020AFF30080AFF30080AFF3008021
:1047D000314B9B6970B5314C9D6804F1100654F85B
:1047E000041B2F48FDF744FBB442F8D12D4A2E4B51
:1047F0002B482E4C691EFCF713FAA91E2060294A8B
:104800002B4B2748FCF70CFAE91E6060254A294B20
:104810002348FCF705FA291FA060224A264B2048AE
:10482000FCF7FEF9691FE0601E4A1D48234BFCF7A8
:10483000F7F92168206141B1616831B1A16821B106
:10484000E16811B1B0FA80F149090120FDF7B0FB30
:1048500000B170BDFDF71CFC02201949FDF7C0FB3B
:104860000028F6D104240E48FDF7EAFA011C18BF0F
:1048700001210320FDF79CFB0028EAD1013CF2D185
:104880000748FDF7DDFABDE87040B0FA80F104207A
:104890004909FDF78DBB00BFF009002060600008EA
:1048A00038110020814700081C630008EC1000202C
:1048B00018630008146300081063000824630008EC
:1048C000E4670008AFF30080AFF30080AFF300802F
:1048D00002484FF4A8710022FDF79ABA381100205F
:1048E00038B50546FCF7C4F9002403461846AB4228
:1048F00008BF44F00104FCF7CBF903460028F5D1CA
:10490000204638BDAFF30080AFF30080AFF30080E6
:1049100010B5474B47499B6947489A68474B82B057
:10492000013A00914FF4A871FCF75AF904460120AE
:10493000A17F091AB1FA81F14909FDF739FB08B1E4
:1049400002B010BD2046FCF713F9A17F0220091A1E
:10495000B1FA81F14909FDF72BFB0028F0D120467F
:10496000FCF716F9A17F0320A1F10101B1FA81F151
:104970004909FDF71DFB0028E2D12046FFF7B0FFF3
:1049800001460420FDF714FB0028D9D12046FFF78B
:10499000A7FF01460520FDF70BFB0028D0D12046DC
:1049A000FCF7F6F8A17FB1FA81F106204909FDF77D
:1049B000FFFA0028C4D1217FB1FA81F1072049090B
:1049C000FDF7F6FA0028BBD12046FFF789FF014624
:1049D0000820FDF7EDFA0028B2D12046FFF780FF4E
:1049E00001460920FDF7E4FA0028A9D13220FCF79E
:1049F00037F8217FA1F10E03594259410A20FDF7F2
:104A0000D7FA00289CD12046FFF76AFF01460B2009
:104A1000FDF7CEFA002893D12046FFF761FF80F022
:104A20000101C9B20C2002B0BDE81040FDF7C0BAC8
:104A3000F00900201C63000848110020814700088D
:104A4000704700BFAFF30080AFF30080AFF300808A
:104A500008B5C8210248FCF7A3FF002008BD00BF2D
:104A600094080020AFF30080AFF30080AFF3008024
:104A700000B5064B06481968064B83B00022009229
:104A80000422FCF73DFF03B05DF804FB6060000802
:104A900094080020414A0008AFF30080AFF3008083
:104AA00008B50021C8220248FDF702F8002008BD21
:104AB00070080020AFF30080AFF30080AFF30080F8
:104AC00000B5064B06481968064B83B000220092D9
:104AD0000422FCF7C5FF03B05DF804FB606000082A
:104AE00070080020414A0008AFF30080AFF3008057
:104AF000F0B5202383B083F31188974B0120996888
:104B0000B1FA81F14909FDF753FA0646F8B90346AF
:104B100083F31188202383F3118841248E4D21468D
:104B200001342846E4B2FCF713FF452CF6D10023EC
:104B300083F31188202383F311886A69AB699A4251
:104B40003DD031460220FDF733FA044620B1002360
:104B500083F3118803B0F0BD034683F3118820234B
:104B600083F311887C482146FCF7F2FE043014BF21
:104B7000002101210320FDF71BFAF0B9034683F35E
:104B800011880424744D4FF0FF312846FCF708FFCC
:104B9000C0B2FDF7FDF9013CF4D1202383F3118865
:104BA0000420A968B1FA81F14909FDF701FA234609
:104BB00050B183F3118803B0F0BD2346F9E7AE6826
:104BC000003618BF0126BCE783F31188052063492E
:104BD000FDF706FA0028BDD1202383F31188412474
:104BE0005D4D214601342846E4B2FCF7B1FE452C68
:104BF000F6D1002383F31188594E082271682846A4
:104C0000FCF7F6FEA0F104010620B1FA81F1490992
:104C1000FDF7CEF9044600289CD1202383F31188A8
:104C20000720A968B1FA81F14909FDF7C1F9002807
:104C3000C3D1034683F31188202383F311884124D1
:104C4000454D214601342846E4B2FCF781FE452C4F
:104C5000F6D1002383F311887468414F214628461A
:104C60000222FCF7C5FEA0F102010820B1FA81F191
:104C70004909FDF79DF900287FF46CAF03462146F2
:104C800002222846FCF7B4FEA0F102010920B1FA85
:104C900081F14909FDF78CF9064600287FF45AAFE7
:104CA000202383F311880A20A968B1FA81F1490908
:104CB000FDF77EF9044618B1334683F3118849E7BE
:104CC000034683F31188202383F311882146284665
:104CD000FCF73EFE2846FCF723FE234683F31188AB
:104CE000202383F311880B20A968B1FA81F14909C7
:104CF000FDF75EF9064600287FF45FAF034683F3B5
:104D00001188184B38689A69174B926800960132DF
:104D10004FF4A871FBF724FE144A2023106083F39C
:104D200011880C20A968B1FA81F14909FDF740F911
:104D300003460028C0D183F31188FDF7A9F928465E
:104D40000A21FCF72DFE431C594259410D2003B0A6
:104D5000BDE8F040FDF72CB994080020E467000896
:104D600060600008F0090020514A0008EC100020A3
:104D70002DE9F041202382B083F311888E4B5969CD
:104D80009A69914262D000210120FDF711F90028B3
:104D900039D1034683F311884124874D21460134DC
:104DA00028464FF0FF32E4B2FCF782FE452CF4D1E6
:104DB000202383F311880220A968B1FA81F14909FF
:104DC000FDF7F6F80646F0B9034683F3118804248C
:104DD000202383F31188784D2846FCF799FE0023A1
:104DE00083F31188C0B2FDF7D3F8013CF0D1202342
:104DF00083F311886A69AB699A422CD0314603204B
:104E0000FDF7D6F828B1002383F3118802B0BDE87E
:104E1000F081034683F3118804206849FDF7E0F828
:104E200004460028F2D1202383F31188624D2846DE
:104E3000FCF76EFE033014BF002101210520FDF7B1
:104E4000B7F868B1234683F31188DFE7996800312A
:104E500018BF012198E7AE68003618BF0126CDE7DC
:104E6000034683F31188564E74680822214628466B
:104E7000FCF776FEA0F104010620B1FA81F14909A0
:104E8000FDF796F807460028C0D1202383F3118848
:104E90000720A968B1FA81F14909FDF789F8804630
:104EA00018B13B4683F31188B0E7034683F31188BA
:104EB000444B30689A69444B9268CDF800800132C7
:104EC0004FF4A871FBF74CFD404A2023106083F398
:104ED0001188E9682B69AA685B1A991AA1F1040183
:104EE0000820B1FA81F14909FDF762F8064618B1C8
:104EF000434683F3118889E7034683F31188FDF75E
:104F0000C7F8202383F311882846FCF7B9FD334600
:104F100083F31188202383F3118805F108010EC95A
:104F20009B1A591A0920B1FA81F14909FDF740F895
:104F3000034618B1334683F3118867E783F311887A
:104F4000022221462846FCF70BFE0238414241412D
:104F50000A20FDF72DF8034600287FF457AF2146BD
:104F600002222846FCF7FCFD821E514251410B20D3
:104F7000FDF71EF800287FF449AF202383F3118842
:104F80000C20A968B1FA81F14909FDF711F8002355
:104F900010B183F3118839E783F311880A22194687
:104FA0000548FCF785FD431C594259410D2002B0CC
:104FB000BDE8F041FCF7FCBF70080020E467000882
:104FC00060600008F0090020A14A0008EC100020F1
:104FD000704700BFAFF30080AFF30080AFF30080F5
:104FE000704700BFAFF30080AFF30080AFF30080E5
:104FF00010B52F482F4CFCF79BFF4FF4EA70FCF7DD
:1050000067FF2046FCF7A4FF2B48FCF791FF4820E0
:10501000FCF75EFF2046FCF79BFF2848FCF788FF63
:105020001420FCF755FF2046FCF792FF2448FCF7BC
:105030007FFF0C20FCF74CFF2046FCF789FF21483E
:10504000FCF776FF0420FCF743FF2046FCF780FFC7
:105050001D48FCF76DFF1020FCF73AFF2046FCF7D7
:1050600077FF1A48FCF764FF1020FCF731FF204659
:10507000FCF76EFF1648FCF75BFF0820FCF728FFE3
:105080002046FCF765FF1348FCF752FF2420FCF78D
:105090001FFF2046FCF75CFF0F48FCF749FF282064
:1050A000FCF716FF2046BDE81040FCF751BF00BFDB
:1050B000706900088069000888690008986900081C
:1050C000A8690008B8690008C8690008D86900081C
:1050D000E8690008F8690008086A0008AFF3008072
:1050E00010B5FCF7A5FA446B2146FCF7C1FA002C79
:1050F000F7D1204610BD00BFAFF30080AFF30080B2
:105100002DE9F041144B154A9B69D2F800809D6847
:10511000134F82B0FCF7FCFF4FF47A70FDF708F8EC
:105120000024013526460F4B009640464FF4A871E7
:105130002A46FBF715FC3B780134002BF3D00A48D4
:10514000FCF7F6FE2046FCF7C3FE084802B0BDE8B7
:10515000F041FCF7FDBE00BFF009002060600008D0
:10516000CD100020D14F0008186A0008286A0008F6
:1051700070B50546FCF7CCFF4FF47A70FCF7D8FF0A
:10518000074E002428460121FCF732FA3378013417
:10519000002BF7D028460021FCF72AFA204670BDE4
:1051A000CD100020AFF30080AFF30080AFF300809C
:1051B00010B5134B134A9B6910689A68124B82B062
:1051C0000021013A00914FF4A871FBF7C9FB0F4B86
:1051D0001860FFF7CDFF0446FCF75AFF0C48FCF7B8
:1051E000A7FE2046FCF774FE0A48FCF7A1FE60000B
:1051F000FCF76EFE084802B0BDE81040FCF7A8BE00
:10520000F009002060600008E1500008EC10002068
:10521000186A0008346A0008406A0008AFF300808A
:1052200010B5134B134A9B6910689A68124B82B0F1
:105230000021013200914FF4A871FBF791FB0F4B55
:105240001860FFF795FF0446FCF722FF0C48FCF7B7
:105250006FFE2046FCF73CFE0A48FCF769FE600042
:10526000FCF736FE084802B0BDE81040FCF770BEFF
:10527000F009002060600008E1500008EC100020F8
:10528000186A0008346A0008406A0008AFF300801A
:105290002DE9F0412C4F2D4EBB6930689A682C4B9C
:1052A0002C4CDFF8C08082B00025013200954FF40D
:1052B000A871FBF755FBBA69736892682060023ADF
:1052C000009518464FF4A8714346FBF749FBBA69AD
:1052D000B36892686060033A009518464FF4A8716D
:1052E0004346FBF73DFBBA69F3689268A060043A55
:1052F000009518464FF4A8714346FBF731FBBA6995
:1053000033699268E060053A4FF4A8711846009539
:105310004346FBF725FB20612068FFF729FF044681
:10532000FCF7B6FE0C48FCF703FE2046FCF7D0FD68
:105330000A48FCF7FDFD6000FCF7CAFD084802B012
:10534000BDE8F041FCF704BEF009002060600008F1
:10535000E1500008EC100020186A0008346A0008C8
:10536000406A0008D14F0008AFF30080AFF300801F
:10537000084A10B52023946983F311880220FBF7B3
:10538000BFF9636A002BF9D0002383F31188184614
:1053900010BD00BFF0090020AFF30080AFF3008024
:1053A00070B5254B254A9B6910689A68244B254E99
:1053B00082B0002501324FF4A8710095FBF7D0FAB6
:1053C000214B04461860FCF7A3FE4FF47A70FCF7FB
:1053D000AFFE202383F3118800212046FBF7D0F98C
:1053E00020460021FBF7CCF920460021FBF7C8F945
:1053F00020460021FBF7C4F9002383F3118833789A
:105400000435002BE5D0202383F311884FF0FF31C2
:105410002046FBF7B5F9002383F31188FCF738FE2B
:105420000A48FCF785FD6800FCF752FD084802B009
:10543000BDE87040FCF78CBDF009002060600008FA
:1054400071530008CD100020EC100020186A0008ED
:10545000406A0008AFF30080AFF30080AFF3008034
:105460002DE9F041154B164A9B69D2F800809D68E2
:10547000144F82B0FCF74CFE4FF47A70FCF758FEE4
:105480000024013D2646104B00964FF4A8712A4691
:105490004046FBF765FAFBF74BFB3B780134002BEA
:1054A000F1D00A48FCF744FD2046FCF711FD0848FE
:1054B00002B0BDE8F041FCF74BBD00BFF009002091
:1054C00060600008CD100020D14F0008186A000865
:1054D000286A0008AFF30080AFF30080AFF30080CC
:1054E0002DE9F041DFF80081374FD8F818303868DF
:1054F0009A68364B364E374D82B0002405324FF451
:10550000A8710094FBF72CFAD8F818207B689268F1
:105510003060043218464FF4A8712C4B0094FBF70E
:105520001FFAD8F81820BB689268706003321846DA
:105530004FF4A871254B0094FBF712FAD8F8182005
:10554000FB689268B060023218464FF4A8711F4B96
:105550000094FBF705FAD8F818203B699268F060D0
:10556000013218464FF4A871184B0094FBF7F8F974
:105570003061FCF7CDFD4FF47A70FCF7D9FD164889
:105580000021FBF7BDFB2B780134002BF7D0FCF793
:105590006FFD00211048FBF7B3FBFCF779FD0F48C6
:1055A000FCF7C6FC2046FCF793FC0D48FCF7C0FC5A
:1055B00004EB44004000FCF78BFC0A4802B0BDE855
:1055C000F041FCF7C5BC00BF60600008F155000861
:1055D000EC100020CD100020C4110020186A000833
:1055E0004C6A0008406A0008F0090020AFF3008010
:1055F00010B5074CA3695B7F5A0706D40548FBF733
:105600008FFBA3695B7F5B07F8D5002010BD00BF4F
:10561000F0090020C4110020AFF30080AFF3008038
:1056200001480021FBF74CBBC4110020AFF3008000
:1056300001480121FBF744BBC4110020AFF30080F7
:105640002DE9F04184B004ACDFF8CC802D4F2E4E14
:105650002E4D002344F8043DFCF75AFDD8F81830CD
:1056600038689A6800943346013A4FF4A871FBF702
:1056700077F9D8F818207B6892682860013A00947E
:1056800018464FF4A8713346FBF76AF9D8F818208A
:10569000BB6892686860013A009418464FF4A8719C
:1056A0003346FBF75DF9D8F81820FB689268A860CC
:1056B000013A009418464FF4A8713346FBF750F9AD
:1056C000D8F818203B699268E860013A4FF4A87155
:1056D000009418463346FBF743F928614FF47A707B
:1056E000FBF7BEF9FCF7C4FCFCF7D2FC0848FCF75A
:1056F0001FFC0398FCF7ECFB0648FCF729FC04B000
:10570000BDE8F0816060000821570008EC1000201F
:10571000186A0008406A0008F0090020AFF3008012
:1057200038B5094D0446FBF7C3F9FBF7C1F9FBF7A0
:10573000BFF9FBF7BDF92368AA6904332360537FDF
:105740005B07F0D5002038BDF0090020AFF30080E2
:1057500030B583B000242346234824490094102206
:10576000FCF7CEF8FCF7D4FC4FF47A70204DFCF730
:10577000DFFC202383F3118800211B48FCF7E8F8A5
:1057800001211948FCF7E4F802211748FCF7E0F87A
:1057900003211548FCF7DCF8002383F311884FF050
:1057A000FF311148FCF7FCF84FF0FF310E48FCF7D1
:1057B000F7F84FF0FF310C48FCF7F2F80A484FF0C9
:1057C000FF31FCF7EDF82B780134002BD1D00948DC
:1057D000FCF7AEFBA000FCF77BFB074803B0BDE87D
:1057E0003040FCF7B5BB00BF8C1100207C110020BD
:1057F000CD100020186A0008606A0008AFF300802E
:1058000038B5FCF785FC4FF47A70FCF791FC154D28
:105810000024202383F311881348144A0121002314
:10582000FAF7D6FE114A124842F210710023FAF735
:10583000CFFE0D48FAF7ECFE0D48FAF7E9FE00231B
:1058400083F311882B780134002BE2D00948FCF750
:105850006FFB6000FCF73CFB0748BDE83840FCF7F5
:1058600077BB00BFCD100020B0110020E14F000831
:1058700068110020186A00086C6A0008AFF3008005
:1058800038B5FCF745FC4FF47A70FCF751FC144D29
:1058900000241448FBF744FA1248FBF799FA114820
:1058A000FBF73EFA0F48FBF793FA0E48FBF738FA7E
:1058B0000C48FBF78DFA0B48FBF732FA0948FBF767
:1058C00087FA2B780134002BE3D00748FCF730FB34
:1058D000A000FCF7FDFA0548BDE83840FCF738BBEE
:1058E000CD100020C4110020186A0008786A000852
:1058F00038B5FCF70DFC4FF47A70FCF719FC124D2B
:1059000000241248FBF754FBFBF77AFB0F48FBF728
:105910004FFBFBF775FB0D48FBF74AFBFBF770FBF2
:105920000A48FBF745FBFBF76BFB2B780134002B98
:10593000E7D00748FCF7FCFAA000FCF7C9FA0548D5
:10594000BDE83840FCF704BBCD100020D01100208A
:10595000186A0008886A0008AFF30080AFF300807F
:105960000148FBF7B5BA00BFD0110020AFF30080AB
:1059700008B500F0A5F8044800F052F900F048F826
:10598000BDE8084000F004BBF06C0008AFF30080F5
:105990000C30FCF72DB800BFAFF30080AFF30080F0
:1059A0000C304FF0FF33FCF723B800BFAFF300809B
:1059B0003030FCF7D5B800BFAFF30080AFF3008004
:1059C00030304FF0FF33FCF7CBB800BFAFF30080AF
:1059D0000C30FBF7E5BF00BFAFF30080AFF30080F2
:1059E0000C304FF0FF31FBF7DBBF00BFAFF300809F
:1059F0003030FCF75DB800BFAFF30080AFF300803C
:105A000030304FF0FF32FCF753B800BFAFF30080E7
:105A100000F066BAAFF30080AFF30080AFF3008010
:105A200070B50E4B044682B040F8043B012600944A
:105A30000B461546606004F1540104F10C00267217
:105A40001022FBF75DFF00942B4604F1300004F1B7
:105A500064011022FCF704F802B070BDC06C0008AD
:105A600010B52023044683F3118800F051FA022375
:105A70002372002383F3118810BD00BFAFF30080B1
:105A800038B5436904460D463BB1294604F10C0084
:105A9000FBF75EFF00280BDB38BD04300421FBF769
:105AA0006FFC294604F10C00FBF752FF0028F3DAE3
:105AB000201D8021BDE83840FBF762BCAFF30080B9
:105AC000254B26499A6A4FF0FF300022F0B59862C4
:105AD0009A621F69224E1861DFF894E01A61072765
